:100000000010040000000000221800002418000066
:10001000C402000026180000281800002A1800005A
:10002000C402000030180000C4020000C402000036
:10003000C40200009639000066280000C4020000D7
:10004000C4020000B433000078180000C4020000AD
:10005000C4020000143A0000203A0000C40200006C
:10006000C4020000C4020000C4020000C402000078
:10007000C4020000C4020000C4020000C402000068
:10008000C4020000C4020000C4020000C402000058
:10009000C4020000C4020000C4020000C402000048
:04028000C4020000B4
:100400002A140400000000003A1404000000000058
:100410004E140400000000005A1404000000000004
:1004200066140400000000007214040000000000C4
:100430007A1404000000000084140400000000008E
:100440009814040000000000A41404000000000040
:10045000B014040000000000BA1404000000000002
:10046000C414040000000000DE14040000000000BA
:10047000E614040000000000001504000000000065
:10048000041504000000000008150400000000002E
:1004900010150400000000001E15040000000000FC
:1004A00028150400000000003215040000000000C0
:1004B0004015040000000000441504000000000086
:1004C0004C1504000000000052150400000000005C
:1004D000581504000000000066150400000000002C
:1004E0008A0F040000000000A60F040000000000B6
:1004F000AE0F040000000000B60F04000000000072
:10050000BA0F040000000000BE0F0400000000004D
:10051000CA0F0400000000000838040000000000BA
:1005200028380400000000003038040000000000FB
:100530003C380400000000004238040000000000C5
:100540004838040000000000543804000000000097
:100550008C03040000000000AC0304000000000055
:10056000B403040000000000BC030400000000000D
:10057000C003040000000000C403040000000000E9
:10058000D0030400000000000040DA000000FE007C
:100590008040EB0000C1EB0002409800090007001A
:1005A000010020000F0007008000EB002C00070076
:1005B000010020002D0007008000EB006100980082
:1005C0000000060000419000020CE100040032002F
:1005D000014098008000EB004100980039000700BE
:1005E0000000060021009800801F78000000EB004A
:1005F0008100D1000080D3008100D1000080D300B1
:100600008100D1000080D3008100D1000080D300A0
:100610008100D1000080D3008100D1000080D30090
:100620008100D1000080D3008100D1000080D30080
:10063000421F200002004000010039008100E80054
:10064000823E2000110009004288D8008000780016
:100650004F007800510098001A00070000000600C3
:10066000C408DD0031009800000006001100980069
:100670001400070000000600801F780041012000E0
:1006800001004000D0009000400190000281400035
:10069000420098000B0007004F007800801F780090
:1006A0002102200001004000D00090004001900095
:1006B0000281400042009800020007004F007800CD
:1006C00000000600801F7800831F780080017800FA
:1006D00043019000403D2000834090008180FB005A
:1006E0008100D000808040009100BA00010001002C
:1006F000130090000180B8000000D0008180D2007B
:1007000000F0A7008100E800E1019800CF01780027
:100710004F00780000000600849FBE004400F800EF
:100720004400A80001802800C812DE00C22ADD00B3
:10073000612ACA008582E800E1827A004812DD0061
:100740004422DE001201C0000106CD004400F90081
:100750004F02BE0000000600F1FF270002F0A600D5
:10076000010028000000060082004100010038005E
:100770008180EA0000000600820078000000060088
:100780008200EA0000000600B30090000110E100C2
:10079000F1FF2700010039000100280000000600D9
:1007A00007060700000006008C030000AC030000F1
:1007B000B4030000BC030000C0030000C403000039
:0407C000D003000062
:10080000008000002C8000005880000085800000DF
:10081000B1800000DE8000000B8100003881000004
:100820006481000091810000BE810000EB81000026
:10083000188200004582000072820000A082000041
:10084000CD820000FA82000028830000558300005A
:1008500083830000B0830000DE8300000C8400006E
:100860003A8400006884000095840000C38400007E
:10087000F1840000208500004E8500007C8500008A
:10088000AA850000D9850000078600003686000092
:100890006486000093860000C1860000F086000098
:1008A0001F8700004E8700007D870000AC87000096
:1008B000DB8700000A880000398800006888000093
:1008C00098880000C7880000F6880000268900008C
:1008D0005589000085890000B5890000E589000080
:1008E000148A0000448A0000748A0000A48A000070
:1008F000D48A0000048B0000358B0000658B00005B
:10090000958B0000C68B0000F68B0000278C000042
:10091000578C0000888C0000B98C0000EA8C000025
:100920001A8D00004B8D00007C8D0000AD8D000005
:10093000DF8D0000108E0000418E0000728E0000DE
:10094000A48E0000D58E0000078F0000388F0000B5
:100950006A8F00009C8F0000CE8F0000FF8F000088
:10096000319000006390000095900000C890000056
:10097000FA9000002C9100005E910000919100001F
:10098000C3910000F6910000289200005B920000E5
:100990008E920000C1920000F492000027930000A4
:1009A0005A9300008D930000C0930000F393000061
:1009B000269400005A9400008D940000C194000019
:1009C000F4940000289500005C95000090950000CC
:1009D000C3950000F79500002B960000609600007C
:1009E00094960000C8960000FC9600003197000025
:1009F0006597000099970000CE97000003980000CB
:100A0000379800006C980000A1980000D69800006C
:100A10000B9900004099000075990000AA99000008
:100A2000E0990000159A00004B9A0000809A00009F
:100A3000B69A0000EB9A0000219B0000579B000033
:100A40008D9B0000C39B0000F99B00002F9C0000C1
:100A5000659C00009B9C0000D29C0000089D00004B
:100A60003E9D0000759D0000AB9D0000E29D0000D2
:100A7000199E0000509E0000879E0000BE9E000050
:100A8000F59E00002C9F0000639F00009A9F0000CD
:100A9000D29F000009A0000041A0000078A0000043
:100AA000B0A00000E8A000001FA1000057A10000B6
:100AB0008FA10000C7A10000FFA1000038A2000024
:100AC00070A20000A8A20000E1A2000019A300008B
:100AD00052A300008AA30000C3A30000FCA30000EF
:100AE00035A400006EA40000A7A40000E0A400004C
:100AF00019A5000052A500008BA50000C5A50000A7
:100B0000FEA5000038A6000072A60000ABA60000FB
:100B1000E5A600001FA7000059A7000093A700004A
:100B2000CDA7000007A8000042A800007CA8000094
:100B3000B6A80000F1A800002BA9000066A90000DB
:100B4000A1A90000DCA9000017AA000052AA000019
:100B50008DAA0000C8AA000003AB00003EAB000055
:100B60007AAB0000B5AB0000F1AB00002CAC00008C
:100B700068AC0000A4AC0000E0AC00001CAD0000BC
:100B800058AD000094AD0000D0AD00000CAE0000E8
:100B900049AE000085AE0000C2AE0000FEAE00000F
:100BA0003BAF000078AF0000B5AF0000F2AF00002F
:100BB0002FB000006CB00000A9B00000E6B000004B
:100BC00023B1000061B100009EB10000DCB1000063
:100BD0001AB2000057B2000095B20000D3B2000074
:100BE00011B300004FB300008EB30000CCB300007F
:100BF0000AB4000049B4000087B40000C6B4000085
:100C000004B5000043B5000082B50000C1B5000086
:100C100000B600003FB600007EB60000BEB6000081
:100C2000FDB600003DB700007CB70000BCB7000077
:100C3000FBB700003BB800007BB80000BBB8000069
:100C4000FBB800003BB900007CB90000BCB9000053
:100C5000FCB900003DBA00007DBA0000BEBA000039
:100C6000FFBA000040BB000081BB0000C2BB000017
:100C700003BC000044BC000085BC0000C7BC0000F1
:100C800008BD00004ABD00008BBD0000CDBD0000C6
:100C90000FBE000051BE000093BE0000D5BE000094
:100CA00017BF000059BF00009CBF0000DEBF00005E
:100CB00021C0000063C00000A6C00000E9C0000021
:100CC0002CC100006FC10000B2C10000F5C10000DE
:100CD00038C200007CC20000BFC2000003C3000095
:100CE00046C300008AC30000CEC3000012C4000047
:100CF00056C400009AC40000DEC4000022C50000F3
:100D000067C50000ABC50000F0C5000034C6000098
:100D100079C60000BEC6000003C7000048C7000037
:100D20008DC70000D2C7000017C800005DC80000D2
:100D3000A2C80000E8C800002EC9000073C9000066
:100D4000B9C90000FFC9000045CA00008BCA0000F5
:100D5000D2CA000018CB00005ECB0000A5CB00007B
:100D6000ECCB000032CC000079CC0000C0CC0000FD
:100D700007CD00004ECD000095CD0000DDCD000078
:100D800024CE00006CCE0000B3CE0000FBCE0000ED
:100D900043CF00008ACF0000D2CF00001BD000005C
:100DA00063D00000ABD00000F3D000003CD10000C5
:100DB00084D10000CDD1000016D200005FD2000027
:100DC000A8D20000F1D200003AD3000083D3000083
:100DD000CCD3000016D400005FD40000A9D40000DA
:100DE000F3D400003DD5000087D50000D1D5000028
:100DF0001BD6000065D60000AFD60000FAD6000072
:100E000044D700008FD70000DAD7000025D80000B3
:100E100070D80000BBD8000006D9000051D90000EE
:100E20009DD90000E8D9000034DA00007FDA000024
:100E3000CBDA000017DB000063DB0000AFDB000053
:100E4000FBDB000048DC000094DC0000E0DC00007C
:100E50002DDD00007ADD0000C7DD000013DE00009C
:100E600060DE0000AEDE0000FBDE000048DF0000B8
:100E700096DF0000E3DF000031E000007FE00000CB
:100E8000CCE000001AE1000068E10000B7E10000DA
:100E900005E2000053E20000A2E20000F0E20000E0
:100EA0003FE300008EE30000DDE300002CE40000DF
:100EB0007BE40000CAE400001AE5000069E50000D8
:100EC000B9E5000008E6000058E60000A8E60000CA
:100ED000F8E6000048E7000098E70000E8E70000B7
:100EE00039E8000089E80000DAE800002BE900009A
:100EF0007CE90000CDE900001EEA00006FEA000076
:100F0000C0EA000012EB000063EB0000B5EB00004C
:100F100007EC000058EC0000AAEC0000FCEC00001C
:100F20004FED0000A1ED0000F3ED000046EE0000E3
:100F300099EE0000EBEE00003EEF000091EF0000A4
:100F4000E4EF000037F000008BF00000DEF000005E
:100F500032F1000085F10000D9F100002DF200000F
:100F600081F20000D5F2000029F300007EF30000BA
:100F7000D2F3000027F400007BF40000D0F400005E
:100F800025F500007AF50000CFF5000024F60000FA
:100F90007AF60000CFF6000025F700007BF700008E
:100FA000D0F7000026F800007CF80000D3F800001D
:100FB00029F900007FF90000D6F900002CFA0000A2
:100FC00083FA0000DAFA000031FB000088FB000021
:100FD000DFFB000037FC00008EFC0000E6FC000098
:100FE0003EFD000095FD0000EDFD000045FE000007
:100FF0009EFE0000F6FE00004EFF0000A7FF00006E
:10100000000000002403000024030000240300006B
:1010100048060000230300006B09000021030000C4
:101020008C0C00001F030000AB0F00001D0300002C
:10103000C81200001A030000E215000017030000A8
:10104000F9180000130300000C1C00000E03000040
:101050001A1F00000A0300002422000004030000FD
:1010600028250000FF02000027280000F8020000E9
:101070001F2B0000F2020000112E0000EB02000006
:10108000FC300000E3020000DF330000DB02000060
:10109000BA360000D30200008D390000CA020000F9
:1010A000573C0000C1020000173F0000B7020000DB
:1010B000CE410000AD0200007B440000A20200000F
:1010C0001D47000097020000B44900008C02000098
:1010D000404C000080020000C04E0000740200007E
:1010E00034510000670200009B5300005A020000C8
:1010F000F65500004D020000435800004002000079
:10110000825A000032020000B45C0000230200009A
:10111000D75E000015020000EC600000060200002F
:10112000F2620000F7010000E9640000E70100003E
:10113000D0660000D7010000A7680000C7010000CA
:101140006E6A0000B7010000246C0000A6010000D8
:10115000CA6D0000950100005F6F0000840100006F
:10116000E370000072010000557200006101000090
:10117000B67300004F010000057500003D0100003E
:10118000427600002B0100006C770000180100007F
:1011900085780000060100008A790000F300000055
:1011A0007D7A0000E00000005D7B0000CD000000C3
:1011B0002A7C0000BA000000E47C0000A7000000C8
:1011C0008A7D0000930000001E7E00008000000069
:1011D0009D7E00006C0000000A7F000059000000A6
:1011E000627F000045000000A77F00003100000082
:1011F000D97F00001E000000F67F00000A000000FA
:10120000FF7F0000F6FF0000F67F0000E2FF000015
:10121000D97F0000CFFF0000A77F0000BBFF0000C8
:10122000627F0000A7FF00000A7F000094FF00001B
:101230009D7E000080FF00001E7E00006DFF00000C
:101240008A7D000059FF0000E47C000046FF00009A
:101250002A7C000033FF00005D7B000020FF0000BF
:101260007D7A00000DFF00008A790000FAFE000080
:1012700085780000E8FE00006C770000D5FE0000D5
:1012800042760000C3FE000005750000B1FE0000BC
:10129000B67300009FFE0000557200008EFE000035
:1012A000E37000007CFE00005F6F00006BFE00003A
:1012B000CA6D00005AFE0000246C000049FE0000C8
:1012C0006E6A000039FE0000A768000029FE0000D9
:1012D000D066000019FE0000E964000009FE00006D
:1012E000F2620000FAFD0000EC600000EBFD00007F
:1012F000D75E0000DDFD0000B45C0000CEFD000004
:10130000825A0000C0FD000043580000B3FD0000F9
:10131000F6550000A6FD00009B53000099FD00005B
:10132000345100008CFD0000C04E000080FD000024
:10133000404C000074FD0000B449000069FD00004D
:101340001D4700005EFD00007B44000053FD0000CF
:10135000CE41000049FD0000173F00003FFD0000A6
:10136000573C000036FD00008D3900002DFD0000C7
:10137000BA36000025FD0000DF3300001DFD00002F
:10138000FC30000015FD0000112E00000EFD0000D5
:101390001F2B000008FD00002728000001FD0000B1
:1013A00028250000FCFC000024220000F6FC0000C0
:1013B0001A1F0000F2FC00000C1C0000EDFC0000F5
:1013C000F9180000E9FC0000E2150000E6FC00004E
:1013D000C8120000E3FC0000AB0F0000E1FC0000BD
:1013E0008C0C0000DFFC00006B090000DDFC00003D
:1013F00048060000DCFC000024030000DCFC0000C8
:1014000000000000DCFC0000DCFC0000DCFC000054
:10141000B8F90000DDFC000095F60000DFFC0000DC
:1014200074F30000E1FC000055F00000E3FC000054
:1014300038ED0000E6FC00001EEA0000E9FC0000B8
:1014400007E70000EDFC0000F4E30000F2FC000000
:10145000E6E00000F6FC0000DCDD0000FCFC000023
:10146000D8DA000001FD0000D9D7000008FD000017
:10147000E1D400000EFD0000EFD1000015FD0000DA
:1014800004CF00001DFD000021CC000025FD000060
:1014900046C900002DFD000073C6000036FD0000A7
:1014A000A9C300003FFD0000E9C0000049FD0000A5
:1014B00032BE000053FD000085BB00005EFD000051
:1014C000E3B8000069FD00004CB6000074FD0000A8
:1014D000C0B3000080FD000040B100008CFD0000A2
:1014E000CCAE000099FD000065AC0000A6FD000038
:1014F0000AAA0000B3FD0000BDA70000C0FD000067
:101500007EA50000CEFD00004CA30000DDFD000024
:1015100029A10000EBFD0000149F0000FAFD00006F
:101520000E9D000009FE0000179B000019FE000040
:101530003099000029FE00005997000039FE000094
:101540009295000049FE0000DC9300005AFE000066
:10155000369200006BFE0000A19000007CFE0000AF
:101560001D8F00008EFE0000AB8D00009FFE00006E
:101570004A8C0000B1FE0000FB8A0000C3FE0000A0
:10158000BE890000D5FE000094880000E8FE00003F
:101590007B870000FAFE0000768600000DFF000049
:1015A0008385000020FF0000A384000033FF0000BB
:1015B000D683000046FF00001C83000059FF000096
:1015C000768200006DFF0000E281000080FF0000D5
:1015D0006381000094FF0000F6800000A7FF000078
:1015E0009E800000BBFF000059800000CFFF00007C
:1015F00027800000E2FF00000A800000F6FF0000E4
:10160000008000000A0000000A8000001E000000A8
:1016100027800000310000005980000045000000D4
:101620009E80000059000000F68000006C00000061
:101630006381000080000000E28100009300000050
:1016400076820000A70000001C830000BA000000A2
:10165000D6830000CD000000A3840000E00000005D
:1016600083850000F300000076860000060100007C
:101670007B87000018010000948800002B01000007
:10168000BE8900003D010000FB8A00004F01000000
:101690004A8C000061010000AB8D00007201000067
:1016A0001D8F000084010000A19000009501000042
:1016B00036920000A6010000DC930000B701000094
:1016C00092950000C701000059970000D701000063
:1016D00030990000E7010000179B0000F7010000AF
:1016E0000E9D000006020000149F0000150200007D
:1016F00029A10000230200004CA3000032020000D8
:101700007EA5000040020000BDA700004D020000C1
:101710000AAA00005A02000065AC0000670200003F
:10172000CCAE00007402000040B100008002000056
:10173000C0B300008C0200004CB60000970200000D
:10174000E3B80000A202000085BB0000AD0200006B
:1017500032BE0000B7020000E9C00000C102000074
:10176000A9C30000CA02000073C60000D302000033
:1017700046C90000DB02000021CC0000E3020000AB
:1017800004CF0000EB020000EFD10000F2020000E5
:10179000E1D40000F8020000D9D70000FF020000E9
:1017A000D8DA000004030000DCDD00000A030000BA
:1017B000E6E000000E030000F4E300001303000065
:1017C00007E70000170300001EEA00001A030000EC
:1017D00038ED00001D03000055F000001F0300005D
:1017E00074F300002103000095F6000023030000BD
:1017F000B8F9000024030000DCFC00002403000012
:101800004B720000656C00006C200000636F0000EC
:101810006D6D0000616E0000642000006C690000C6
:101820006E6500000D0A0000577200006974000028
:10183000746500006E20000062790000204A0000FC
:10184000616D0000657300002048000075740000A1
:1018500063680000627900002C2000004D610000E8
:10186000644C000061620000203200003031000052
:10187000322D0000313800000D0A000054790000BC
:101880007065000020480000206600006F720000B4
:1018900020680000656C0000702E00000D0A00003A
:1018A0000D0A0000004800005B6500006C7000003D
:1018B0005D2000002D2000006469000073700000AE
:1018C0006C61000079730000206300006F6D000000
:1018D0006D6100006E64000020730000756D0000F3
:1018E0006D610000727900000D0A0000565B000077
:1018F0006F6C0000756D0000655D0000203C00000D
:10190000766F00006C3E0000202D00002073000068
:1019100065740000732000006D61000073740000A6
:1019200065720000207600006F6C0000756D00008D
:10193000652C0000203C0000766F00006C3E00002B
:10194000203D0000203000002028000073690000C6
:101950006C6500006E74000029200000746F0000A8
:101960002031000036200000286D00006178000062
:10197000696D0000756D0000290D00000A5000001F
:101980005B7200006F670000726100006D5D000017
:10199000203C0000707200006F6700003E200000D5
:1019A0002D2000007365000074730000207000009B
:1019B000726F000067720000616D00002C20000053
:1019C0003C700000726F0000673E0000203D000088
:1019D00020300000202800007573000065720000B0
:1019E000292000006F7200002031000020740000E8
:1019F0006F200000313400002028000064650000E2
:101A00006D6F0000290D00000A4300005B6F0000AD
:101A10006E740000726F00006C5D0000203C0000DE
:101A2000636E0000747200006C3E0000203C0000F9
:101A3000766100006C3E0000202D00002073000045
:101A40006574000073200000636F00006E74000076
:101A5000726F00006C2C0000203C0000636E0000E0
:101A6000747200006C3E0000203D00002030000039
:101A7000207400006F200000373100002C2000008F
:101A80003C760000616C00003E2000003D2000001C
:101A900030200000746F0000203400003039000056
:101AA000350D00000A4400005B69000073700000FF
:101AB0006C610000795D0000202D000020640000B2
:101AC00069730000706C00006179000073200000F1
:101AD000616C00006C200000636F00006E740000F9
:101AE000726F00006C7300000D0A00000D0A000008
:101AF000004900006E760000616C0000696400001F
:101B0000206300006F6D00006D6100006E640000D6
:101B10000D0A0000004900006E760000616C0000B4
:101B2000696400002061000072670000756D0000AC
:101B3000656E0000740D00000A0000000002000045
:101B400060020000D40200005C03000000040000FA
:101B5000C0040000A8050000BA060000000800004C
:101B600082090000500B0000740D000000100000FE
:101B700006130000A0160000E81A00000020000074
:101B80000000000000000000000000000000000055
:101B90000000000000000000000000000000000045
:101BA0000000000000000000000000000000000035
:101BB00000000000000000000000000080F00000B5
:101BC00002900000F0020000A0F0000002B000004F
:101BD000F0020000C0F0000001D00000F0010000A1
:101BE000E0F0000002F00000FFFF0000F2FF000044
:101BF00002F30000FF010000F6FF000000F7000004
:101C0000FF000000F0F8000000F80000FF000000F6
:101C1000FAFF000000FB0000FF000000FCFF0000D6
:101C200000FE0000FF000000FFFF000000F80000C1
:101C3000F80000000000000000000000811F780094
:101C4000010320000080FB000100B800010021001A
:101C500001004000CF007800000006008040EB004B
:101C600001409800801F78004101200001004000E1
:101C700047FA07004F007800801F780021022000FB
:101C80000100400042FA07004F0078008040EB005E
:101C900000C1EB001240980009000700E10120009C
:101CA000220007008000EB00570007000100200021
:101CB000740007008000EB00110898000000060087
:101CC00010419000020CE1000A003200114098001F
:101CD0000900070022FD20008180FB008100D00068
:101CE000828040009100BA00110098008000EB0053
:101CF0006100980000000600811F7800904090006D
:101D0000600CE10004003200620CE10002003200CD
:101D10001004A000010037001004A100CF007800DB
:101D2000000006001004A10000000600821F7800D9
:101D300002E021000208E100010036008200780084
:101D400041009800801F78000000EB008100D10066
:101D50000080D3008100D1000080D3008100D10039
:101D60000080D300429C20000200400001003900A6
:101D70008100E80082382100110009004288D80063
:101D8000800078004F007800710098002100070063
:101D9000B491AE001A003700020021000200E100F9
:101DA00017003A004001900082004100801F780037
:101DB0000203200002004000DCFF07004F00780013
:101DC000400190008200410081004100801F7800A6
:101DD0000206200002004000D4FF07004F007800F8
:101DE000400190008200410081804000801F780007
:101DF0000209200002004000CCFF07004F007800DD
:101E00004F01780000000600C408DD005100980072
:101E100000000600811F7800821F78002202200047
:101E200002014000620190004491DE00F000900049
:101E300002F0A70008003700810041006212230071
:101E400001003900820078000208E100010036003C
:101E50008200780007003700810041001203200053
:101E600001003100820078000208E1000100310029
:101E700082007800010898004F017800CF007800B8
:101E80000000060021009800010007000000060085
:101E9000829FBE007401400062019000A00190008A
:101EA00002F0A2000311B8000201D0008381D20029
:101EB00002F0A7008301E80003F0A7000300280058
:101EC000330098004F01BE00000006006001900042
:101ED0009000900001000100240220000402400054
:101EE000640290008009900003014100804190004D
:101EF0000300A6004200A90008A0BF0001003200B4
:101F00004200A900010039000001EB0062009800C6
:101F1000000006004400F8004400A80001802800EA
:101F2000C812DE00C22ADD0061AACA008582E8006C
:101F3000E1827A004812DD004422DE001281C000F6
:101F40000186CD004400F90000000600F1FF2700E3
:101F500002F0A600010028000000060082004100F7
:101F6000010038008180EA0000000600820078004D
:101F7000000006008200EA0000000600D000900089
:101F80000110E100F1FF27000100390001002800E5
:101F9000000006008000FD00090007008000FD0031
:101FA000000006008A0F0000A60F0000AE0F000020
:101FB000B60F0000BA0F0000BE0F0000CA0F0000ED
:101FC000C611E20003003A0000088000F08FB20062
:101FD000308E8800C611D400C691B600C791AF00FC
:101FE00000F0A200C671AF0000F0A2000000D00017
:0C1FF000C6B1D600308E80000000060054
:10200000CFCC240000FF2400000188000000000065
:102010000000210001002400810040000018EB00B6
:102020000100E100FDFF3900B431EF00C631EF00DF
:10203000C10407000A030700BF1107008614070048
:10204000EF0B0700028EAF00B511A800028EAE00A4
:10205000B4F1A800CA140700B511AF005E10070064
:10206000B4F1AF009D120700C3E8A800FE0307000B
:10207000FD0307000F040700EC000700B8F1EF00B4
:1020800000C0B300940207005D00080002000000D9
:10209000FF1F0900000000000060FE00AF02070003
:1020A0006C51E200F8FF3A000060FE0001868000FB
:1020B0000060FE0000868000010050006400E10026
:1020C000FBFF390000C0B300801F7800DBFE070073
:1020D000900890000100E000010032008100E9005A
:1020E0001108980002003A0003FF070001003700C2
:1020F0000CFF07004F0078000040E8006404E10096
:10210000F1FF3900950207006CD1BF0011C2B30086
:102110001104E7000000FE006CD1BF00C1C0B30095
:102120000104E1000C003A00B4D1AA0000C0B300E1
:10213000690207005D00080002000000FF1F09009F
:10214000000000000060FE00840207006C51E20005
:10215000F8FF3A00D4FF37006CD1BF0031C0B300A4
:102160000104E10006003A0013E1A900BE030700E4
:10217000BD03070013E1A80028030700CAFF3700CA
:102180006CD1BF0001C3B3000104E10007003A00B5
:1021900013E1A900B4030700B303070013E1A8008B
:1021A00000002000DF020700BFFF37006CD1BF0036
:1021B00051C0B3000104E1000E003A0013E1A90090
:1021C000A9030700A803070013E1A800B951D40030
:1021D000B951B4001040B000D2020700B971EC0050
:1021E00040C0B300B951E30001003A00B971EF00FB
:1021F000ADFF37006CD1BF0081C2B3000104E10024
:102200000E003A0013E1A9009703070096030700A8
:1022100013E1A800BA51D400BA51B4002040B00074
:10222000C0020700BA71EC0040C0B300BA51E3002D
:1022300001003A00BA71EF009BFF37006CD1BF007C
:1022400021C1B3000104E1000E003A0013E1A9002E
:10225000850307008403070013E1A800BB51D400E5
:10226000BB51B4003040B000AE020700BB71EC00BF
:1022700040C0B300BB51E30001003A00BB71EF0066
:1022800089FF3700B8D1BF000000A1006C11AF007A
:1022900010C0B3006C31AF0030C0B3006C51AF0060
:1022A00050C0B3006C71AF0070C0B3006C91AF0050
:1022B00090C0B3006CB1AF00B0C0B300060207001D
:1022C0009C0D0700B8D1BF000080FB006C00B80077
:1022D000A40D21000002420002172100E30C21009E
:1022E00005000800100000003200780033004000B4
:1022F00004003B000000EA00430040008019780021
:102300000000EB00F1FF20000100E10005003600B5
:10231000010050000000EA004300400080197800EE
:1023200001007800001A7800000000006C025200E2
:10233000818B8000128680000281500002F0A7008D
:102340000201EA006A10E10003003900808B80007E
:1023500010868800A2000700918B800022868000F2
:102360000281500002F0A7000201EA006A10E100B9
:1023700003003900908B800020868800A0000700B1
:10238000A18B8000328680000281500002F0A700FD
:102390000201EA006A10E10003003900A08B80000E
:1023A000308688009E000700B18B80004286800046
:1023B0000281500002F0A7000201EA006A10E10069
:1023C00003003900B08B8000408688009C00070025
:1023D000C18B8000528680000281500002F0A7006D
:1023E0000201EA006A10E10003003900C08B80009E
:1023F000508688009A000700D18B8000628680009A
:102400000281500002F0A7000201EA006A10E10018
:1024100003003900D08B8000608688009800070098
:10242000B511AF00A80F07001FFF3700410D0700CF
:10243000FF0F09000060FE003E0D0700FF0F0900BE
:102440000060FE003B0D0700FF0F09000060FE006A
:10245000380D0700FF0F09000060FE00350D070072
:10246000FF0F09000060FE00320D0700FF0F09009A
:102470000060FE002F0D0700FF0F09000060FE0046
:102480002C0D0700FF0F09000060FE00290D07005A
:10249000FF0F09000060FE00260D0700FF0F090076
:1024A0000060FE00230D0700FF0F09000060FE0022
:1024B000200D0700FF0F09000060FE001D0D070042
:1024C000FF0F09000060FE001A0D0700FF0F090052
:1024D0000060FE00170D0700FF0F09000060FE00FE
:1024E000140D0700FF0F09000060FE00110D07002A
:1024F000FF0F09000060FE000E0D0700FF0F09002E
:102500000060FE000B0D0700FF0F09000060FE00D9
:10251000080D0700FF0F09000060FE00050D070011
:10252000FF0F09000060FE00020D0700FF0F090009
:102530000060FE00FF0C0700FF0F09000060FE00B6
:10254000FC0C0700FF0F09000060FE00F90C0700FB
:10255000FF0F09000060FE00F60C0700FF0F0900E6
:102560000060FE00F30C0700FF0F09000060FE0092
:10257000F00C0700FF0F09000060FE00ED0C0700E3
:10258000FF0F09000060FE00EA0C0700FF0F0900C2
:102590000060FE00E70C0700FF0F09000060FE006E
:1025A000E40C0700FF0F09000060FE00808B800034
:1025B00010868800908B800020868800A08B800089
:1025C00030868800B08B800040868800C08B8000F9
:1025D00050868800D08B800060868800000006004E
:1025E000B8D1BF000080FB006600B800E0004000EA
:1025F000040090002A0007003600070000000600D3
:10260000B8D1BF000080FB006600B800E1004000C8
:1026100014009000220007002E00070000000600B2
:10262000B8D1BF000080FB006600B800E2004000A7
:10263000240090001A000700260007000000060092
:10264000B8D1BF000080FB006600B800E300400086
:1026500034009000120007001E0007000000060072
:10266000B8D1BF000080FB006600B800E400400065
:10267000440090000A000700160007000000060052
:10268000B8D1BF000080FB006600B800E500400044
:1026900054009000020007000E0007000000060032
:1026A000811F7800C400DE00010040000108200006
:1026B0000100500000F0A7000000EB00F1FF200037
:1026C0000100E1000100360001007800CF00780031
:1026D00000000600829FBE003600F800801F7800D0
:1026E000811F7800C2002000110009008280D800FC
:1026F0006404E1000200310050FD07008000780012
:102700004F0178004F007800A33921000281FB00BF
:1027100083014100830141009301BA000300E000FE
:1027200001003200030001003600F9004F01BE0035
:10273000000006002A1400003A1400004E140000A5
:102740005A14000066140000721400007A1400008D
:102750008414000098140000A4140000B0140000B9
:10276000BA1400002A1400003A1400004E140000AD
:102770005A14000066140000721400007A1400005D
:102780008414000098140000A4140000B014000089
:10279000BA1400002A1400003A1400004E1400007D
:1027A0005A14000066140000721400007A1400002D
:1027B0008414000098140000A4140000B014000059
:1027C000BA1400002A1400003A1400004E1400004D
:1027D0005A14000066140000721400007A140000FD
:1027E0008414000098140000A4140000B014000029
:1027F000BA140000C4140000DE140000E614000047
:10280000000000000015000004150000081500007D
:10281000101500001E150000281500000000000023
:1028200000000000321500004015000044150000B3
:10283000000000004C1500005215000000000000D0
:102840000000000000000000581500005C150000AA
:1028500066150000811F7800A224200011000900E5
:102860000280D800CF0078008000FD0014FD070032
:1028700000000600811F7800A2242000110009003A
:102880000280D800CF0078008000FD0023022000E5
:10289000030040004BF7070000000600D7000700C8
:1028A0008000FD0023022000030040004DF70700D8
:1028B00000000600B80007008000FD002302200091
:1028C0000300400069F7070000000600BA00070097
:1028D0008000FD00920120001208980013FD0700FF
:1028E00000000600AC0007008000FD0065FD070049
:1028F000000006008000FD004301200003004000AE
:1029000057F7070000000600811F7800A22420006E
:10291000110009000280D800CF0078008000FD007F
:10292000430120000300400026F7070000000600D6
:10293000B20007008000FD004301200003004000BA
:1029400028F7070000000600930007008000FD0044
:10295000430120000300400044F707000000060088
:102960008000FD00920120001208980026FD07005B
:10297000000006008000FD0023022000030040004C
:1029800037F707000000060062552000110009001B
:102990000280D800B411A900B451A9000000E000E1
:1029A000050032006100E10001003A00B411A80006
:1029B00001003200B451A80000000600B4B1A90023
:1029C00000B0A700B4B1A8000000060062552000C6
:1029D000110009000280D800B431A900B471A90027
:1029E0000000E000050032006100E10001003A0053
:1029F000B431A80001003200B471A8000000060044
:102A0000BE11070000000600CB1107000000060001
:102A100080007800A01C210011F7070000000600CC
:102A2000A2242000110009000280D8008000780054
:102A3000A01C2100E3F60700000006006F0007005D
:102A400080007800A01C2100E6F6070000000600C8
:102A50005100070080007800A01C210003F7070048
:102A60000000060012102000110009000280D800AA
:102A70000100200001004000B08D88000000060029
:102A80000210070000000600B491A90000B0A700E2
:102A9000B491A8000000060058000700F8100700D5
:102AA000000006003C0007001511070000000600AA
:102AB0001011070000000600A224200011000900E8
:102AC0000280D800E810070000000600320007006E
:102AD0001211070000000600B851E3001E0032008A
:102AE00080407800B8D1B600E04FB20001407800D5
:102AF000020032006A71EF006B71EF00B8F1B700AD
:102B00000080FB006C00B800A10D21008080400017
:102B1000310078007011BD007086880031007800A7
:102B20007211BD0080868800310078007411BD00EC
:102B300090868800310078007611BD00A08688005C
:102B4000310078007811BD00B0868800310078002F
:102B50007A11BD00C0868800000006000040EB002E
:102B600013EEAE000000A00012CEAE000010A000D8
:102B7000132EAE000020A000130EAE000030A00007
:102B800012AEAE000040A00012EEAE000050A00059
:102B90006CF1B70000000600811F7800014028009A
:102BA0004300DE000000D0006100780000F0A100CA
:102BB000CF00780000000600811F7800821F780097
:102BC00002202000110009000280D800E20120004C
:102BD0000010DD00024028008100D000E280780073
:102BE0000008B8000000D0008180D2000100780009
:102BF0004F017800CF00780000000600811F7800A8
:102C0000014028004300DE000000D0006100780091
:102C100000F0A1004400DE00010020000100E100FE
:102C20000100310001007800014021000100E100B5
:102C30000100360001007800CF0078000000060097
:102C4000811F7800B08D88000000B100F10F2000D6
:102C50000100B800908A8800CF00780000000600CC
:102C60002600F8002400F8002200F8003600F800E2
:102C7000B411A900B431A900B451A900B471A900DC
:102C8000B491A900B4B1A90000C0B300801F7800BE
:102C9000EAFB0700F1FB07004F0078000040E80066
:102CA0006404E100F9FF390057100700081107001C
:102CB000F0FF2700408E8800A00D2100470009008A
:102CC0000018EB0000802000908A8800700020002F
:102CD000B08D88003600F9002200F9002400F900C8
:102CE0002600F90000000600821F7800A20D2100D6
:102CF00001014100010141000009780075FE070053
:102D00004F01780000000600811F7800A10D21000E
:102D1000808040008080400011007800CF00780063
:102D200000000600811F7800829FBE00849FBE00C5
:102D30002600F8002400F8002200F8003600F80011
:102D4000040022006000E1002B003200C4CF22000A
:102D50006100E1002800320044D422006200E1005A
:102D600025003200C4D822006300E10022003200B6
:102D700044DD22006400E1001F003200C4E12200B3
:102D80006500E1001C00320044E622006600E1001C
:102D900019003200C4EA22006700E1001600320088
:102DA00044EF22006800E10013003200C4F3220067
:102DB0006900E1001000320044F822006A00E100DE
:102DC0000D003200C4FC22006B00E1000A0032005A
:102DD000440123006C00E10007003200C405230019
:102DE0006D00E10004003200440A23006E00E1009F
:102DF0000100320001003700550007003600F900DD
:102E00002200F9002400F9002600F9004F02BE005C
:102E10004F01BE00CF00780000000600C3E8A90003
:102E20005400F800001020006039880000002200E3
:102E30005039880030002400403988000060FE00CE
:102E40005005200070398800A00A200070398800E1
:102E500029E7A800000000000000000029E7AF00FB
:102E6000FEFF3700A50D210024012000A30F200044
:102E700003D8FE000300200035007800B50078007C
:102E800002F02000020160004411DD008280700029
:102E90008089BB008119BB0035007800B50078003F
:102EA00002F02000020160004411DD008280700009
:102EB0008089BB008119BB001000240040398800C4
:102EC0000060FE005005200070398800A00A200034
:102ED0007039880029E7A800000000000000000009
:102EE00029E7AF00FEFF37002AA7EC002AA7EC0075
:102EF00050398000010022000100680001802F008D
:102F00000100600005003A000482FB000402E900B1
:102F1000D6FF3A0000C0B300EFFE07005D000800D6
:102F200002000000FF1F0900000000000060FE001A
:102F30000AFF07006C51E200F8FF3A005400F90064
:102F40002F080700C3E8A80038FD070000000600AE
:102F5000C3E8A90042FF0700A50D2100430220009D
:102F60001480BA000080FB00B400BA0001017800B0
:102F70004411DE000041EB0002007000F2FF20006F
:102F800082806000801A7800811A78008301E9004D
:102F9000F3FF3A0000C0B300801F780027FB070052
:102FA0002EFB07004F0078000040E8006404E100B9
:102FB000F9FF3900940F070045100700F0FF2700C4
:102FC000408E880000C0B300801F7800B8F1B700C1
:102FD0000080FB006C00B800A40D2100000242003C
:102FE0007FFD070086FD07008DFD070094FD0700AB
:102FF0009BFD0700A2FD07004F0078000040E8009D
:103000006C04E100F0FF390000C0B300B2FE07001D
:10301000FB070700C3E8A8005D00080002000000ED
:10302000FF1F0900000000000060FE00CBFE07004B
:103030006C51E200F8FF3A00FCFC070000000600BB
:103040000000FE000000FE000000FE00050037004A
:103050000000FE000000FE000000FE000000FE0078
:103060000000FE000000FE0015AEA800046EA800DF
:10307000156EA800154EA800D70108000200000038
:10308000FF1F0900000000000060FE0015AEA9004F
:10309000046EA900156EA900154EA900D7010800FD
:1030A00002000000FF1F0900000000000060FE0099
:1030B000000006006A71EF006B71EF000003200052
:1030C000900888000A21EF0070092000700888002D
:1030D0004448A9004428A8004408A9000108A90000
:1030E0002108A80013E1A800C030EF00000006008E
:1030F000801F780004000700C030EC000108A90020
:103100004F007800004006006B71EC0040CBB3002C
:103110006B51E300870039006B71EF0015AEA90019
:10312000046EA900156EA900154EA900B8D1BF0004
:103130000040D1006004E1000B0032006104E100B6
:103140001C0032006204E1002D0032006304E10043
:10315000440032006404E100590032006504E100DB
:1031600066003200730037006AD1BF006004E100DE
:1031700001003A0015AEA8006104E10001003A0028
:10318000046EA8006204E10001003A00156EA80078
:103190006304E10001003A00154EA8006A71EC00DA
:1031A00040C0B3006A51E30001003A006A71EF00C9
:1031B000600037006AD1BF006004E10001003A00FE
:1031C000154EA8006104E10001003A00156EA80048
:1031D0006204E10001003A00046EA8006304E1000B
:1031E00001003A0015AEA8006A71EC0040C0B300BF
:1031F0006A51E30001003A006A71EF004D003700A8
:103200006AD1BF006004E10001003A0015AEA800D9
:103210006104E10001003A00046EA8006204E100CC
:1032200001003A00156EA8006304E10001003A00B5
:10323000154EA8006404E10001003A00156EA800D4
:103240006504E10001003A00046EA8006A71EC0018
:1032500060C0B3006A51E30001003A006A71EF00F8
:10326000340037006AD1BF006004E10002003A0078
:1032700015AEA800046EA8006104E10002003A0047
:10328000046EA800156EA8006204E10002003A0076
:10329000156EA800154EA8006304E10002003A0074
:1032A000046EA800156EA8006A71EC0040C0B3005F
:1032B0006A51E30001003A006A71EF001D00370017
:1032C0006AD1BF006004E10002003A0015AEA80018
:1032D000046EA8006104E10002003A00156EA80027
:1032E000154EA8006A71EC0020C0B3006A51E300DB
:1032F00001003A006A71EF000E0037006AD1BF008A
:103300006004E10002003A0015AEA800154EA800C6
:103310006104E10002003A00046EA800156EA800E6
:103320006A71EC0020C0B3006A51E30001003A006A
:103330006A71EF000000060080022000303A880029
:10334000F0F32F004427B60000FE2F004427B600FC
:103350001000FC0010C0B300317420008207200070
:10336000A3092000824878008348780080487800CC
:1033700010C0B300217420006204200073052000F7
:103380008248780083487800804878000060FE001A
:10339000000027004207B600010021000008E100FC
:1033A000FAFF3A000060FE0042A7AE00FDFF3700C2
:1033B0000E2EEF001E2EEF00062EEF00162EEF0051
:1033C00011AEA900006EA900116EA900114EA9004E
:1033D00015AEA900046EA900156EA900154EA9002E
:1033E00011EEA80010CEA800112EA800110EA80002
:1033F00010AEA80010EEA800008EA8000A2EEF0064
:103400001A2EEF001BEEA8001ACEA8001B2EA80053
:103410001B0EA8001AAEA8001AEEA8000A8EA8007B
:103420000C2EEF001C2EEF00082EEF00182EEF00E0
:1034300020742000610420007205200001487800FB
:103440000248780042C7A9002074200061042000CF
:1034500072052000014878000248780042C7A800A1
:103460004480A80044E0A80044C0A80044A0A800EC
:103470004420A9004580A90045A0A9000020200003
:10348000900188005420EF0060A7EF006007A900BA
:1034900060A7A9006127A9006167A9006187A90049
:1034A00061A7A90062A7EF0064A7EF0066A7EF007D
:1034B0006AA7EF006B07A9006CA7EF006C87A90053
:1034C00000000600000000000000000000000000F6
:1034D00000000000000000000000000000000000EC
:1034E00000000000000000000000000000000000DC
:1034F00000000000000000000000000000000000CC
:1035000000000000000000000000000000000000BB
:105000007031EF007231EF007431EF007631EF0054
:105010007831EF007A31EF006E31EF0021A8A9005E
:10502000404E2100001988004041200010198800DE
:1050300030F121002019880000102000901988000C
:105040002823EF00002EA800100EA800102EA800A4
:10505000104EA800106EA800000EA8000E2EA8008A
:105060001E0EA8001E2EA8001E4EA8001E6EA80030
:105070000E0EA800F0032000801988002088A900E7
:105080000000200000588800D00020001058880040
:1050900000CC240020588800062BEF0000302000B0
:1050A0006058880050002000705888004248A800CE
:1050B0004228A9004208A80001EBA8000088A90026
:1050C0002088A80021E3A80000000600809FBE0001
:1050D000829FBE00708B80006C00B80001C024006D
:1050E0008080400000CC2400B0187800B018780010
:1050F000B0187800B0187800B0187800B0187800B0
:105100006E31EC00F00020006E31B6006E11E2004E
:1051100004023A0081C0B300F0FF2F000260820059
:105120000200E100020036000200780003C0240003
:10513000626082000200E100020036000200780096
:10514000C3C02400C26082000200E10002003600F9
:105150000200780083C12400226182000200E10085
:10516000020036000200780043C2240082618200FF
:105170000200E100020036000200780003C32400B0
:10518000E26182000200E1000200360002007800C5
:10519000C3C32400426282000200E1000200360024
:1051A0000200780083C42400A26282000200E100B1
:1051B000020036000200780043C52400026382002A
:1051C0000200E100020036000200780003C624005D
:1051D000626382000200E1000200360002007800F3
:1051E000C3C62400C26382000200E1000200360050
:1051F0000200780083C72400226482000200E100DC
:10520000020036000200780043C824008264820055
:105210000200E100020036000200780003C9240009
:10522000E26482000200E100020036000200780021
:10523000C3C92400426582000200E100020036007A
:105240000200780083CA2400A26582000200E10007
:10525000020036000200780043CB24008089EB0076
:105260008140E900ACFF3A00E08B880081C0B300C8
:10527000F0FF2F00126082000200E1000200360001
:105280000200780023C02400726082000200E10066
:105290000200360002007800E3C02400D2608200E1
:1052A0000200E1000200360002007800A3C12400E1
:1052B000326182000200E100020036000200780044
:1052C00063C22400926182000200E1000200360005
:1052D0000200780023C32400F26182000200E10092
:1052E0000200360002007800E3C32400526282000C
:1052F0000200E1000200360002007800A3C424008E
:10530000B26282000200E100020036000200780072
:1053100063C52400126382000200E100020036002F
:105320000200780023C62400726382000200E100BC
:105330000200360002007800E3C62400D263820037
:105340000200E1000200360002007800A3C724003A
:10535000326482000200E1000200360002007800A0
:1053600063C82400926482000200E100020036005B
:105370000200780023C92400F26482000200E100E8
:105380000200360002007800E3C924005265820062
:105390000200E1000200360002007800A3CA2400E7
:1053A000B26582000200E1000200360002007800CF
:1053B00063CB24008089EB008140E900ACFF3A0018
:1053C000F08B880081C0B300F0FF2F0022608200C4
:1053D0000200E100020036000200780043C0240011
:1053E000826082000200E1000200360002007800C4
:1053F00003C12400E26082000200E10002003600E6
:1054000002007800C3C12400426182000200E10072
:10541000020036000200780083C22400A2618200EC
:105420000200E100020036000200780043C32400BD
:10543000026282000200E1000200360002007800F1
:1054400003C42400626282000200E1000200360010
:1054500002007800C3C42400C26282000200E1009E
:10546000020036000200780083C524002263820017
:105470000200E100020036000200780043C624006A
:10548000826382000200E100020036000200780020
:1054900003C72400E26382000200E100020036003C
:1054A00002007800C3C72400426482000200E100C9
:1054B000020036000200780083C82400A264820043
:1054C0000200E100020036000200780043C9240017
:1054D000026582000200E10002003600020078004E
:1054E00003CA2400626582000200E1000200360067
:1054F00002007800C3CA2400C26582000200E100F5
:10550000020036000200780083CB24008089EB0083
:105510008140E900ACFF3A00008C880081C0B300F4
:10552000F0FF2F00326082000200E100020036002E
:105530000200780063C02400926082000200E10053
:10554000020036000200780023C12400F2608200CD
:105550000200E1000200360002007800E3C12400EE
:10556000526182000200E100020036000200780071
:10557000A3C22400B26182000200E10002003600F2
:105580000200780063C32400126282000200E1007E
:10559000020036000200780023C4240072628200F8
:1055A0000200E1000200360002007800E3C424009B
:1055B000D26282000200E1000200360002007800A0
:1055C000A3C52400326382000200E100020036001D
:1055D0000200780063C62400926382000200E100AA
:1055E000020036000200780023C72400F263820024
:1055F0000200E1000200360002007800E3C7240048
:10560000526482000200E1000200360002007800CD
:10561000A3C82400B26482000200E1000200360048
:105620000200780063C92400126582000200E100D4
:10563000020036000200780023CA2400726582004E
:105640000200E1000200360002007800E3CA2400F4
:10565000D26582000200E1000200360002007800FC
:10566000A3CB24008089EB008140E900ACFF3A0025
:10567000108C880081C0B300F0FF2F0042608200D0
:105680000200E100020036000200780083C024001E
:10569000A26082000200E1000200360002007800F1
:1056A00043C12400026182000200E10002003600D2
:1056B0000200780003C22400626182000200E1005F
:1056C0000200360002007800C3C22400C2618200DA
:1056D0000200E100020036000200780083C32400CB
:1056E000226282000200E10002003600020078001F
:1056F00043C42400826282000200E10002003600FE
:105700000200780003C52400E26282000200E1008A
:105710000200360002007800C3C524004263820004
:105720000200E100020036000200780083C6240077
:10573000A26382000200E10002003600020078004D
:1057400043C72400026482000200E1000200360028
:105750000200780003C82400626482000200E100B5
:105760000200360002007800C3C82400C264820030
:105770000200E100020036000200780083C9240024
:10578000226582000200E10002003600020078007B
:1057900043CA2400826582000200E1000200360054
:1057A0000200780003CB2400E26582000200E100E1
:1057B0000200360002007800C3CB24008089EB0091
:1057C0008140E900ACFF3A00208C880081C0B30022
:1057D000F0FF2F00526082000200E100020036005C
:1057E00002007800A3C02400B26082000200E10041
:1057F000020036000200780063C1240012618200BA
:105800000200E100020036000200780023C22400FA
:10581000726182000200E10002003600020078009E
:10582000E3C22400D26182000200E10002003600DF
:1058300002007800A3C32400326282000200E1006B
:10584000020036000200780063C4240092628200E5
:105850000200E100020036000200780023C52400A7
:10586000F26282000200E1000200360002007800CD
:10587000E3C52400526382000200E100020036000A
:1058800002007800A3C62400B26382000200E10097
:10589000020036000200780063C724001264820010
:1058A0000200E100020036000200780023C8240054
:1058B000726482000200E1000200360002007800FB
:1058C000E3C82400D26482000200E1000200360036
:1058D00002007800A3C92400326582000200E100C2
:1058E000020036000200780063CA2400926582003C
:1058F0000200E100020036000200780023CB240001
:10590000F26582000200E100020036000200780029
:10591000E3CB24008089EB008140E900ACFF3A0032
:10592000308C88000088A9004F01BE004F00BE00E7
:1059300000400600D08B80007A31B4007A31B40088
:10594000E08B8000F1FF20007A31B4007A31D5007D
:105950007A31D500808B80007031B4007031B40092
:10596000F08B8000F1FF20007031B4007031D50061
:105970007031D500908B80007231B4007231B40068
:10598000008C8000F1FF20007231B4007231D5002C
:105990007231D500A08B80007431B4007431B40032
:1059A000108C8000F1FF20007431B4007431D500F8
:1059B0007431D500B08B80007631B4007631B400FC
:1059C000208C8000F1FF20007631B4007631D500C4
:1059D0007631D500C08B80007831B4007831B400C6
:1059E000308C8000F1FF20007831B4007831D50090
:1059F0007831D50000000600FB030000F0B40B0076
:105A0000A8972A0000000100010001000E001B0001
:105A10000000000000000000000000000000000086
:105A20000000000001000000000000000000000075
:105A30000000000000000000000000000000000066
:105A40000000000000000000000000000000000056
:105A50000000000000000000FD0F02000200050031
:105A6000D43A4E0000000000000001000F000C00BE
:105A700002C00A0001000100020000000000000056
:105A800000000000000002000230050001000000DC
:105A90009D418D000000000085267000000004007C
:105AA0000030CE0001000000472920000000000067
:105AB00000000000050003000000000000000000DE
:105AC00000000000000000000000000000000000D6
:105AD00000000000000000000000000000000000C6
:105AE0000000000000000000FCFF39000000000082
:105AF000837CCC00000000000000000009000400CE
:105B00000060000000000000000000000000000035
:105B100000000000000000002F3720002B3492000E
:105B20002096F200760901000190F20001000100C8
:105B30000000000000000000000000000000000065
:105B40000000000000000100000000000000000054
:105B50000000000000000000000000000000000045
:105B60000000000000000000000000000000000035
:105B70000000000000000000FD0F02000100020014
:105B8000DF5B1100010001000100000002000200C3
:105B90000280010002000000726B010000000000A2
:105BA0000100000004703900FF0F61004474B70069
:105BB0004696BE00000000000DBDC70000000000BA
:105BC000EFA12D0054495C00DDB987002D030000D2
:105BD000FC3FE900000000000000000000000000A1
:105BE00000000000000000000000000000000000B5
:105BF00000000000000000000000000000000000A5
:105C00000000000000000000D29C03000000020021
:105C10002D0CA800000000000000000000000000A3
:105C20000030CA000000000000000000000000007A
:105C30000000000000000000F20B610000805E0028
:105C40008B53250035080000FFEF5F0000000000C7
:105C5000ABA42D0087030000B944CD00AA090000C1
:105C6000FD4F230000000000790700000272BB0016
:105C7000EF6873000000000000000000000000005A
:105C8000FD0900004D433200E937EA000000000042
:105C90000000000000000000C7FCFF00000003003F
:105CA0000A3A7B0000000000000000000000000035
:105CB0000150AC00000000008540CE000000000054
:105CC0000000000000000000D0489B003C7543002D
:105CD000A192E200CD060000FFFFFF0001000000DE
:105CE000FC5F7E00000003007B6257002A08000072
:105CF000266C3600000000006F090000FA18C7008B
:105D0000176B9700000000000000000000007E00FC
:105D1000FF0F00004D1388001349590000000000D8
:105D200000000000000031004408000000908100E5
:105D3000AB1AAF00000000000000000000000000EF
:105D40000150AC00000000008540CE0000000000C3
:105D50000000000000000000EA080000FE8F910033
:105D6000681FF100C10A000008EECF00010000002A
:105D70000070CA000210AD0000A0A70003000000E0
:105D8000FF0F0300CE040000A4060000B56651001A
:105D900003B05B0000000000008093000040F700AB
:105DA000FF2FD500FDFFFC008D500200DC0100003C
:105DB00000709100450D3100440800000AE0B90070
:105DC000AC0AED0000000000000000000000000030
:105DD0000130B600000000000C434D000000000040
:105DE000000000000000000073040100FF5F670076
:105DF000DB64320000000000000000000000010031
:105E000048020100D7E0FD00FD4FC1000000000086
:105E1000FEFFFF0000000300000000000000000083
:105E20000000000000000000000000000000000072
:105E30000000000000000000000000000000000062
:105E40000000000000000000DFA95E00000000006C
:105E50004A0CA40000000000000000000000000048
:105E6000008000000000000003F0FC0000000000C3
:105E70000000000000000000BDC3A7005EE1670055
:105E8000E6A1380000000000000000005395DB0090
:105E9000790A02000142DC00C21DF700069DA9003C
:105EA000FCAF9E001E490D00000000000000000035
:105EB00000000000000000000000000000000000E2
:105EC00000000000000000000000000000000000D2
:105ED0000000000000000000754CF400000000000D
:105EE000050DB400000000000000000000000000EC
:105EF0000080000000000000A153420000000000EC
:105F000000000000000000005E57E400E35028009D
:105F1000A6014A00CE090100FF7F920024010D0076
:105F2000B46956007151B100CECBF1003B070300BC
:105F3000F63F6B00090300007DDD5300BC6E62007C
:105F40009828F70000000000BA761200DE04000076
:105F5000577842000320C60095462F00FC09000038
:105F6000A1AFF400F106F50090F40600FC9F3700A5
:105F700041686500000000000000000028000000EB
:105F800000000000000000002B394D000000000060
:105F90000000000024919800A705000012050900E8
:105FA000E520BF00B1B5E000CA3D99000F02060030
:105FB000A753F2003EF9FF006526B500578B3C0061
:105FC000FF5F11003D0FF3007DC4250002000000BB
:105FD000BE241D0003000100790BC300AA000000CD
:105FE000000000000110FE00FEE39400030000002A
:105FF000481C9300FA050200B4BCC20000F0FE0089
:106000007B4792000000000000000000010000003B
:10601000AC8801000000000000607E00000000006D
:106020000000000000000000D5B77300B0B2960079
:10603000DEC86F00FF6FB100FFAF290023010D0024
:10604000FEAFC3008E0401000E494700F3FAFC00C6
:10605000FFFFFF00AC0602009D0B00006C1B9E00C2
:10606000049A1900C7406700FEFFFF007D0500008D
:10607000250C030000F0F500169C4200150B0000F3
:10608000508BEA00F906F60072AF1700FBFF4900DB
:1060900007060300000000000000000026000000CA
:1060A00000000000000000008873150000000000E0
:1060B00000000000E2939800D5B76300B0A225006D
:1060C00045B65500CE090100FF8F120023010D00D7
:1060D000FFAF63008E747B00434D48003A0B030012
:1060E000FFAF63000C03010074D80E00FB8F430068
:1060F0003E68BA00070600006A86BE00DE040000A3
:1061000048B9370000C0F600CC269400890600008C
:10611000AEFCFC00F306F500756F1E00FCAF7300CB
:1061200079484A000000000000000000260000003E
:1061300000000000000000008C52E300000000009E
:1061400000000000E2939800A73519001205000036
:10615000BDD26200B1B5E000C8ED83000F020600B9
:10616000A70303003EF9FF00CF541D00578B3C00EE
:10617000FF5F11003D0FF3007E04000000000000EF
:10618000CB622D00290B010048366100AC000000F5
:1061900000000000002000004B3332000C0B000018
:1061A00009F8FF0062080000B4BCC20000F0FE0065
:1061B000CC674E000000000000000000010000005D
:1061C000AC8801000000000000607E0000000000BC
:1061D0000000000000000000AE31EF00B271EF00DF
:1061E000D0632400508D8800608D8800B031EF00AE
:1061F00000C0280022010700E0C3B30039010700F6
:1062000000000600809FBE002242AF000F00370052
:10621000311180006D0CE100100032006A0CE100C9
:106220000E003200805D2400AE11B40001487800F9
:10623000AE31EC0040062000AE11E3000700320052
:106240002202AF00F0FF3700090037003111800053
:106250002202AF00ECFF370005003700805D24000C
:10626000AE11B4000048EB00B2F1EF002168A900C4
:106270002222A9004F00BE0000000600809FBE0041
:10628000B011E2000D003200508D8000B040780067
:106290008180FB00B031ED0021118800D17C240009
:1062A0000100E10001003900D0632400508D880016
:1062B0002322AE00F2FF3700010037002188A90039
:1062C0004F00BE0000000600AF00070004003200CF
:1062D00004000700E0C3B30002010700C400070088
:1062E00000000600849FBE00869FBE009B00070042
:1062F0000104E0001A003200680DE1001B003200CA
:10630000E80DE10019003200760DE1001A003200BC
:10631000F60DE10018003200670DE10023003200A5
:10632000E70DE10021003200700DE100290032008C
:10633000F00DE10027003200630DE1003100320072
:10634000E30DE1002F003200640DE1004200320055
:10635000E40DE1004000320090D72800C80007009B
:106360004F03BE004F02BE000000060030C52800EB
:10637000C3000700FAFF3700650007004A00070066
:10638000F7FF3300020120000208E100010036009F
:10639000820078000100780029F20700B8D1BF0020
:1063A000B8F1EF00CCF10700EDFF3700580007000F
:1063B0003D000700EAFF33006108E10001003A00F8
:1063C000B4D1A9006208E10001003A00B4D1A800EC
:1063D000E3FF37004E00070033000700E0FF330003
:1063E000E20020000208E10003003E000100780006
:1063F0004CF20700DAFF3700B0D82800A0000700F1
:10640000D7FF37004200070027000700D4FF330002
:10641000820420000208E1000C0031000101780034
:1064200021000700CEFF3300F0FF200080806000D5
:10643000020078008000FD002BF20700B8D1BF00F9
:10644000B8F1EF00A4F10700C5FF3700B0D828006D
:106450008B000700C2FF37000000EB006100200046
:10646000801F780028F20700680007008100E9001B
:106470000300320090C0B3009A0007000500370007
:1064800061002000D0C0B30096000700A0C0B30098
:10649000940007004F0078000000E8006801E10068
:1064A000EFFF3A00AEFF3700829FBE002B000700CF
:1064B0000081EB0003C3B300030CE10010003900BE
:1064C00093C3B300030CE1000D003E000001EB009C
:1064D00003C3B300030CE1000900390093C3B30008
:1064E000030CE10006003E006A11B8000143B10050
:1064F0008180FB0001014100D0407800F4FF3700AB
:10650000820078000100E0004F01BE00000006009C
:10651000811F7800821F7800B040780012C4B30059
:10652000020CE10003003900A2C5B300020CE10037
:10653000F9FF360012C6B300020CE1000300390077
:10654000A2C7B300020CE100F3FF36000000E9002F
:106550004F017800CF00780000000600821F78000D
:10656000B040780002C2B300020CE100FCFF320030
:1065700092C0B300020CE100F9FF32000000E90014
:106580004F01780000000600811F7800821F78000C
:10659000B251E20011003200805D24000001780059
:1065A000B04078000104E00009003200680CE1000E
:1065B00005003A00815D24000110E1000100320075
:1065C0000201E900F6FF370001597800F4FF3700B7
:1065D0000049EB00805D2400010037000000EB0063
:1065E0000000E0004F017800CF00780000000600B6
:1065F000AE31EF00B271EF000168A9002202AF00D6
:106600000168A8002168A80000000600811F78002A
:10661000829FBE00000178008000EB00833E2000D6
:106620000A0007004306200008000700A30020001E
:10663000060007008080EB00130020000300070025
:106640004F01BE00CF00780000000600F0CFB3007D
:106650000040E80003015100FDFF3100030141004B
:106660000004E000010032008080EB000100E00047
:10667000020032000043B0001A00070000000600CC
:10668000811F7800821F78008000780000192000A8
:10669000B011E3000C003100314078000004E0004C
:1066A00009003200628D800000597800D07C2400FF
:1066B0000010E10001003900D2632400628D8800DF
:1066C000B031EC00F1FF37000188A9002322AE00B1
:1066D0000188A8002188A8004F017800CF00780029
:1066E00000000600811F7800821F7800804078003B
:1066F00000192000B011E30008003100628D800015
:1067000001597800D07C24000010E100010039001C
:10671000D2632400628D8800B031EC000188A900AA
:106720002322AE000188A8002188A8004F0178002C
:10673000CF007800000006000001200080088800DB
:106740000621EF00402E21006008880043C8A80001
:1067500043A8A9004388A90000E8A90020E8A800F0
:1067600011E1A80000000600809FBE00829FBE00CD
:106770002600F8002400F8002200F8003600F80097
:1067800000C0B300801F78002CED0700BAE70700B7
:10679000A0ED0700BEED07004F0078000040E800C4
:1067A0006404E100F7FF3900A4020700FB010700C1
:1067B000FF01070000E8A9003600F9002200F900F7
:1067C0002400F9002600F9004F01BE004F00BE0072
:1067D00000400600849FBE00869FBE004400F80073
:1067E0004400A9001201C300B411AF001500370026
:1067F000B451AF002E003700000020000FED07005D
:10680000B2ED070001037800B003900007F0A70085
:106810000600C90007F0A6001201C6001000200003
:1068200006ED0700A9ED070001037800B003900012
:1068300007F0A7000600C90007F0A6001201C60075
:106840003500370000002000FCEC07009FED07003A
:106850003001900002F0A700020028000209B900F0
:106860000201D0000383D20002F0A7000603E80073
:1068700010002000F1EC070094ED070030019000BB
:1068800002F0A700020028000209B9000201D000AE
:106890008383D20002F0A7008703E8001201C6003C
:1068A0001201C6001201C6001201C6001A0037000C
:1068B00000002000E1EC070084ED070030019000AB
:1068C00002F0A700020028000209B9000201D0006E
:1068D0000383D20002F0A7000603E80010002000A6
:1068E000D6EC0700F00090008100430001089800FA
:1068F00076ED07003001900002F0A70002002800AA
:106900000209B9000201D0000383D20002F0A700FF
:106910000603E8000600C900B431AF0015003700D7
:10692000B471AF002E00370020002000C3EC070038
:1069300066ED070001037800B003900007F0A700A0
:106940000600C90007F0A6001201C60030002000B2
:10695000BAEC07005DED070001037800B00390007A
:1069600007F0A7000600C90007F0A6001201C60044
:106970003500370020002000B0EC070053ED070081
:106980003001900002F0A700020028000209B900BF
:106990000201D0000383D20002F0A7000603E80042
:1069A00030002000A5EC070048ED07003001900002
:1069B00002F0A700020028000209B9000201D0007D
:1069C0008383D20002F0A7008703E8001201C6000B
:1069D0001201C6001201C6001201C6001A003700DB
:1069E0002000200095EC070038ED070030019000F2
:1069F00002F0A700020028000209B9000201D0003D
:106A00000383D20002F0A7000603E8003000200054
:106A10008AEC0700F0009000810043000108980014
:106A20002AED07003001900002F0A70002002800C4
:106A30000209B9000201D0000383D20002F0A700CE
:106A40000603E8000600C9000602CD00E7D92800C9
:106A5000B08D800001002000010050000000D00037
:106A6000E70378004400A8001301C6000004CD002D
:106A700031010700B30107000D0007004400F900D1
:106A80004F03BE004F02BE00000006004300DD00C1
:106A9000F1DF27000100B8000000D0008180D200A3
:106AA000F0FF270001005000408E88000000060023
:106AB00080007800C891BF000008E10001003500A7
:106AC00080007800C811EE000008E10001003C00E1
:106AD000800078000100780000000600A0F1EF00BF
:106AE000A671EF00A771EF00A971EF00A271EF008E
:106AF000A171EF0000000600801F78002242AF0065
:106B000005003700301180000D0007002202AF00A1
:106B1000FAFF37000700370030118000A651E2006D
:106B200004003200A6D1BF000040E900A7F1B70081
:106B3000A671EF002222A9004F0078000000060095
:106B4000811F7800821F780000417800A751E20081
:106B500059003A00A651E20026003A000270A60051
:106B60001B003700E1DD280011409000024060006A
:106B70001104E100020032003100B000FAFF3700DA
:106B8000301A210002587800E08C880021409000E3
:106B9000A6F1B700E0CFB3000204E1009500320097
:106BA000F0CFB3001204E7000000FE0002407800BE
:106BB000804FB200804FB1008E003200024078005A
:106BC000A8F1B700A6D1BF00A9F1B700890037002E
:106BD000A8D1BF00311A210080587800E18C8800CC
:106BE000A9D1BF00A6F1B700A651E2008100320092
:106BF0001700370000868000F18C800001005000F3
:106C00006200E1002A0031000270A6001000370087
:106C1000E0CFB3000204E10076003200F0CFB30011
:106C20001204E7000000FE0002407800804FB2002E
:106C3000804FB1006F00320070CFB3000204E1005A
:106C400001003200C7FF3700A671EF00690037006E
:106C5000A6F1AF0067003700E18C80008258780011
:106C6000E18C8800A671ED0062003A00A231AE000E
:106C700006003700A051E20004003300A3D1BF009A
:106C8000F040B200A051E3005A003A00A3D1BF0087
:106C9000004FB20001CBB3000104E1000800320054
:106CA00001CCB3000104E1004C0032005100370078
:106CB000A671EF00A9FF3700A771ED004D00370066
:106CC00080C7B300A451E3003600390080C7B30089
:106CD000A451E30007003A00A551E20045003A0044
:106CE000DFEF0700B8D1BF00B8F1EF007AEF07007F
:106CF0004000370090C7B300A451E30007003A00FA
:106D0000A551E2003B003A00D5EF0700B8D1BF0023
:106D1000B8F1EF0070EF070036003700A0C7B300EE
:106D2000A451E30033003200B0C7B300A451E30024
:106D300030003200A051E20004003300A3D1BF00B4
:106D4000F040B200A051E30015003A00C0C7B30004
:106D5000A451E30001003A00A231A800D0C7B3005B
:106D6000A451E30001003A00A231A900E0C7B3003A
:106D7000A451E30001003A00A211A800F0C7B3003B
:106D8000A451E30001003A00A211A900E0C7B3003A
:106D9000A451E30002003A00A5D1BF00A1F1B70061
:106DA0001400370080C4B300A451E3001100310087
:106DB000A5D1BF000080FB00C500DD00A4D1BF004D
:106DC0000080FB008000FD00C7EF0700B8D1BF00C6
:106DD000B8F1EF0040EF070006003700A4D1BF0074
:106DE0000080FB006E00E10001003E00CDEF0700D7
:106DF0000000370000868000F08C88004F0178008A
:106E0000CF007800000006000080240040028800C7
:106E1000703EB00050028800A0FF280030028800B9
:106E200000802400C08C8800B08C8800F301090029
:106E30000018EB000040EB009AF1EF000A00070099
:106E4000000020000E0007000000EB0029000700F2
:106E50000000EB002A0007000000EB002F000700F5
:106E60009031EF00000006009A51E3000300320069
:106E70009AF1B7009231EF004D00070000000600C4
:106E8000608C8800800078000000EB008100D10059
:106E90000080D3008100D1000080D3008100D100A8
:106EA0000080D3008100D1000080D3008100D10098
:106EB0000080D3008100D1000080D3008100D10088
:106EC0000080D3008100D1000080D300421F200049
:106ED00002004000010039008100E800823E2000ED
:106EE000110009004288D800A08C880030000700FB
:106EF000000006004400DD00708C880000000600E1
:106F0000311F20000100B8000000D0008180D200B5
:106F1000418C88002600070000000600311F200079
:106F20000100B8000000D0008180D200518C8800A0
:106F30001F00070000000600418C8000528C80007A
:106F40008280700014003200BA8C8000001D78002E
:106F5000BA8C8800CA8C80009A007800B28C8000BD
:106F60000A01510001003E00823EB0000201D10042
:106F7000838C80000310E100050036003A0278009F
:106F80000201E9000310E100010036003A02780036
:106F9000CA8C88000100400000000600A08C800020
:106FA000918C800001004000908C88000000060059
:106FB000928C80009AD1BF00A18523000080FB0045
:106FC0000000D000010040001000BA0000000100E5
:106FD0008180D1000200240082804000428C800029
:106FE0000110B8000000D0008180D20001007800BC
:106FF000528C800002004000321F20000200E1009D
:107000000100360002007800808C88000000060035
:10701000849FBE004400F8004400A80001802800BE
:107020004812DE004222DD006122CA000482E8002C
:10703000E1027A004812DD004422DE001201C000A5
:107040000106CD004400F9004F02BE00000006001A
:10705000F1FF270002F0A600010028000000060052
:1070600001002400010151008200410001003800AC
:107070008180EA00000006008200780001F0A20092
:10708000000006008200EA0001F0A20000000600F5
:10709000718C80000110E100F1FF27000100390030
:1070A0000100280000000600C5EB0700C280DE00DA
:1070B00000000600083800002838000030380000C2
:1070C0003C380000423800004838000054380000C6
:1070D000801D2100F08D8800E08D8800BC31EC001F
:1070E000C031EF00C271EF00FF3309000058EB0020
:1070F000A01C210026E50700000006004300DD007B
:10710000F13F23000100B8000000D0008180D200D0
:107110008100E800E08D800001005000811D210009
:107120000100E1000140230001003D00010040009A
:10713000F08D8800000006004300DD00008E88000E
:10714000000006004400F8004400A9008000780018
:10715000835D2400F28D800002027800B58E8000ED
:10716000C2AADE0005024200851D21000520E100C3
:107170000540230001003100050242000320E10028
:10718000010039000502520014427800C251E200A9
:107190000B003A004822DD000000CA00058E800086
:1071A0001201C0000000CD00B4B1AF008000780033
:1071B000E28D8000C888DE00014978001C0037009D
:1071C0000201E8000310E10001003900821D2100E6
:1071D000F28D88004822DD0092427800C82ADD0046
:1071E0000482D1008582D100050242000000CA005D
:1071F000058E80001201C0000000CD00B4B1AF00C8
:1072000080007800E28D8000C888DE00124278009D
:107210000402FB00848040008180D1000159780085
:107220000310E10001003900821D2100E28D880079
:10723000C2F1EE004400F90000000600A01C21008D
:10724000D000900040019000028140004200980070
:107250001CE5070000000600C431EF0011CEA800B5
:107260001BCEA9001A8EA9001C8EA80000002000C9
:10727000006088000000200010608800F03F2000BF
:1072800020608800062CEF001A2CEF000A2CEF007B
:107290000008200000618800262CEF00282CEF0059
:1072A0002A2CEF002C2CEF00342CEF00D1BC2A004C
:1072B0001232240000002800F1608800F26088008B
:1072C00010618800322CEF00D1BC2A001232240059
:1072D00030002000F1608800F260880020618800A2
:1072E0003A2CEF003C2CEF003E2CEF0021ECA900E3
:1072F00001ECA8001A8EA8001C8EA9000000200036
:10730000200888000021EF00703C20001008880051
:1073100041C8A80041A8A8004188A9000068A900A8
:107320002068A80005E1A8000000060000A0FE00FB
:107330002600F8002400F8002200F8003600F800CB
:10734000208E80000A00070022FD0700208E8800A2
:107350000068A9003600F9002200F9002400F900B5
:107360002600F9000080FE00004006000000060034
:1073700000F0A2004600DE00306188000000060038
:107380000800FC0020742000610420007205200029
:1073900001487800024878001064A100C002200073
:1073A000203688001000200082E6B7000800FC00AC
:1073B000207420006104200072052000014878003C
:1073C000024878001064A000B511AF00F03E200024
:1073D000B4F1AF00501320004011880045C8A90047
:1073E00045A8A8004588A8004648A9004628A80046
:1073F0004608A8000000200010118800800020002E
:107400000011880021E2A800000000002342A8002B
:107410000168A9002168A8000188A9002188A800A6
:107420002828A90000000600B511AF0075FB070071
:10743000B4F1AF00B0FD07000168A90000400600EC
:10744000B511AF008DFB07000188A90000400600C0
:10745000B4110000080000008200000000000700D6
:1074600000FF000000000000C0100000AE0000009F
:1074700080000000004C0000CC00000080000000F4
:107480006E1100001A00000080000000C41100000E
:107490000200000080000000C61100000200000091
:1074A000820000000000000000100000C00000008A
:1074B0008000000000480000000400008000000080
:1074C000881100001400000080000000C8110000B6
:1074D0000200000082000000FF7F0000CA110000CF
:1074E0000E34000080000000BC1100000800000005
:1074F000800000009C1100000E00000080000000D1
:10750000D8450000F601000080000000AA1100002C
:0C7510000A0000008000000000000000E5
:020000040002F8
:10AFE000DEFF0000FFFF0000F7FF00005BFF000036
:08AFF00038FF0000CFFF000054
:020000040100F9
:041FF00020B100001C
:00000001FF
